{
	"data": {
		"bytecode": {
			"linkReferences": {},
			"object": "60806040526000805534801561001457600080fd5b5061109a806100246000396000f3fe608060405234801561001057600080fd5b50600436106100575760003560e01c806311c89b101461005c578063209652551461008c5780635118af5a146100aa57806375058205146100c8578063f31a210a146100f8575b600080fd5b610076600480360381019061007191906108e4565b610116565b6040516100839190610acf565b60405180910390f35b610094610162565b6040516100a19190610c0f565b60405180910390f35b6100b2610197565b6040516100bf9190610c0f565b60405180910390f35b6100e260048036038101906100dd9190610911565b6101a0565b6040516100ef9190610acf565b60405180910390f35b61010061021c565b60405161010d9190610c0f565b60405180910390f35b60007363b3cc527bfd6e060eb65d4e902667ae19aecec273ffffffffffffffffffffffffffffffffffffffff168273ffffffffffffffffffffffffffffffffffffffff16149050919050565b60008061018e7f3078343461386261313230643430303937330000000000000000000000000000610225565b90508091505090565b6000600f905090565b6000816101ab610197565b426101b69190610c7e565b116101f6576040517f08c379a00000000000000000000000000000000000000000000000000000000081526004016101ed90610bef565b60405180910390fd5b81421080610215575061020761021c565b82426102139190610d10565b105b9050919050565b600060b4905090565b600080600167ffffffffffffffff81111561024357610242610e48565b5b6040519080825280602002602001820160405280156102715781602001602082028036833780820191505090505b509050828160008151811061028957610288610e19565b5b60200260200101818152505061029e816102c1565b6000815181106102b1576102b0610e19565b5b6020026020010151915050919050565b60606000606136033590506000602060408360ff166102e09190610cd4565b6102ea9190610c46565b905060606040519050818152816042830136036020830137602081016040526000818051906020012090506000816040516020016103289190610aa9565b604051602081830303815290604052805190602001209050606060405190506041815260418036036020830137602081016040526000610371828461042990919063ffffffff16565b905061037c81610116565b6103bb576040517f08c379a00000000000000000000000000000000000000000000000000000000081526004016103b290610b8f565b60405180910390fd5b6000606236033590506103cd816101a0565b61040c576040517f08c379a000000000000000000000000000000000000000000000000000000000815260040161040390610b6f565b60405180910390fd5b61041a8a8960ff1689610450565b98505050505050505050919050565b600080600061043885856104f6565b9150915061044581610579565b819250505092915050565b6060806000806000806042870136035995508951865260208a51026020870101604052600094505b888510156104e657604085028101359150600093505b89518410156104db57816020850260208c01015114156104c35760206040860282010135602085026020880101526001830192505b89518314156104d0578894505b60018401935061048e565b600185019450610478565b5084955050505050509392505050565b6000806041835114156105385760008060006020860151925060408601519150606086015160001a905061052c8782858561074e565b94509450505050610572565b60408351141561056957600080602085015191506040850151905061055e86838361085b565b935093505050610572565b60006002915091505b9250929050565b6000600481111561058d5761058c610dea565b5b8160048111156105a05761059f610dea565b5b14156105ab5761074b565b600160048111156105bf576105be610dea565b5b8160048111156105d2576105d1610dea565b5b1415610613576040517f08c379a000000000000000000000000000000000000000000000000000000000815260040161060a90610b2f565b60405180910390fd5b6002600481111561062757610626610dea565b5b81600481111561063a57610639610dea565b5b141561067b576040517f08c379a000000000000000000000000000000000000000000000000000000000815260040161067290610b4f565b60405180910390fd5b6003600481111561068f5761068e610dea565b5b8160048111156106a2576106a1610dea565b5b14156106e3576040517f08c379a00000000000000000000000000000000000000000000000000000000081526004016106da90610baf565b60405180910390fd5b6004808111156106f6576106f5610dea565b5b81600481111561070957610708610dea565b5b141561074a576040517f08c379a000000000000000000000000000000000000000000000000000000000815260040161074190610bcf565b60405180910390fd5b5b50565b6000807f7fffffffffffffffffffffffffffffff5d576e7357a4501ddfe92f46681b20a08360001c1115610789576000600391509150610852565b601b8560ff16141580156107a15750601c8560ff1614155b156107b3576000600491509150610852565b6000600187878787604051600081526020016040526040516107d89493929190610aea565b6020604051602081039080840390855afa1580156107fa573d6000803e3d6000fd5b505050602060405103519050600073ffffffffffffffffffffffffffffffffffffffff168173ffffffffffffffffffffffffffffffffffffffff16141561084957600060019250925050610852565b80600092509250505b94509492505050565b60008060007f7fffffffffffffffffffffffffffffffffffffffffffffffffffffffffffffff60001b841690506000601b60ff8660001c901c61089e9190610c7e565b90506108ac8782888561074e565b935093505050935093915050565b6000813590506108c981611036565b92915050565b6000813590506108de8161104d565b92915050565b6000602082840312156108fa576108f9610e77565b5b6000610908848285016108ba565b91505092915050565b60006020828403121561092757610926610e77565b5b6000610935848285016108cf565b91505092915050565b61094781610d56565b82525050565b61095681610d62565b82525050565b61096d61096882610d62565b610db1565b82525050565b6000610980601883610c2a565b915061098b82610e7c565b602082019050919050565b60006109a3601f83610c2a565b91506109ae82610ea5565b602082019050919050565b60006109c6601c83610c3b565b91506109d182610ece565b601c82019050919050565b60006109e9601983610c2a565b91506109f482610ef7565b602082019050919050565b6000610a0c601583610c2a565b9150610a1782610f20565b602082019050919050565b6000610a2f602283610c2a565b9150610a3a82610f49565b604082019050919050565b6000610a52602283610c2a565b9150610a5d82610f98565b604082019050919050565b6000610a75602a83610c2a565b9150610a8082610fe7565b604082019050919050565b610a9481610d9a565b82525050565b610aa381610da4565b82525050565b6000610ab4826109b9565b9150610ac0828461095c565b60208201915081905092915050565b6000602082019050610ae4600083018461093e565b92915050565b6000608082019050610aff600083018761094d565b610b0c6020830186610a9a565b610b19604083018561094d565b610b26606083018461094d565b95945050505050565b60006020820190508181036000830152610b4881610973565b9050919050565b60006020820190508181036000830152610b6881610996565b9050919050565b60006020820190508181036000830152610b88816109dc565b9050919050565b60006020820190508181036000830152610ba8816109ff565b9050919050565b60006020820190508181036000830152610bc881610a22565b9050919050565b60006020820190508181036000830152610be881610a45565b9050919050565b60006020820190508181036000830152610c0881610a68565b9050919050565b6000602082019050610c246000830184610a8b565b92915050565b600082825260208201905092915050565b600081905092915050565b6000610c5182610d6c565b9150610c5c83610d6c565b92508261ffff03821115610c7357610c72610dbb565b5b828201905092915050565b6000610c8982610d9a565b9150610c9483610d9a565b9250827fffffffffffffffffffffffffffffffffffffffffffffffffffffffffffffffff03821115610cc957610cc8610dbb565b5b828201905092915050565b6000610cdf82610d6c565b9150610cea83610d6c565b92508161ffff0483118215151615610d0557610d04610dbb565b5b828202905092915050565b6000610d1b82610d9a565b9150610d2683610d9a565b925082821015610d3957610d38610dbb565b5b828203905092915050565b6000610d4f82610d7a565b9050919050565b60008115159050919050565b6000819050919050565b600061ffff82169050919050565b600073ffffffffffffffffffffffffffffffffffffffff82169050919050565b6000819050919050565b600060ff82169050919050565b6000819050919050565b7f4e487b7100000000000000000000000000000000000000000000000000000000600052601160045260246000fd5b7f4e487b7100000000000000000000000000000000000000000000000000000000600052602160045260246000fd5b7f4e487b7100000000000000000000000000000000000000000000000000000000600052603260045260246000fd5b7f4e487b7100000000000000000000000000000000000000000000000000000000600052604160045260246000fd5b600080fd5b7f45434453413a20696e76616c6964207369676e61747572650000000000000000600082015250565b7f45434453413a20696e76616c6964207369676e6174757265206c656e67746800600082015250565b7f19457468657265756d205369676e6564204d6573736167653a0a333200000000600082015250565b7f446174612074696d657374616d7020697320696e76616c696400000000000000600082015250565b7f5369676e6572206e6f7420617574686f72697a65640000000000000000000000600082015250565b7f45434453413a20696e76616c6964207369676e6174757265202773272076616c60008201527f7565000000000000000000000000000000000000000000000000000000000000602082015250565b7f45434453413a20696e76616c6964207369676e6174757265202776272076616c60008201527f7565000000000000000000000000000000000000000000000000000000000000602082015250565b7f446174612077697468206675747572652074696d657374616d7073206973206e60008201527f6f7420616c6c6f77656400000000000000000000000000000000000000000000602082015250565b61103f81610d44565b811461104a57600080fd5b50565b61105681610d9a565b811461106157600080fd5b5056fea2646970667358221220bb9754216ff4df4a7a93829825d4868c20d6ab48ffbd1cbdf6b251ef234ed6a464736f6c63430008070033",
			"opcodes": "PUSH1 0x80 PUSH1 0x40 MSTORE PUSH1 0x0 DUP1 SSTORE CALLVALUE DUP1 ISZERO PUSH2 0x14 JUMPI PUSH1 0x0 DUP1 REVERT JUMPDEST POP PUSH2 0x109A DUP1 PUSH2 0x24 PUSH1 0x0 CODECOPY PUSH1 0x0 RETURN INVALID PUSH1 0x80 PUSH1 0x40 MSTORE CALLVALUE DUP1 ISZERO PUSH2 0x10 JUMPI PUSH1 0x0 DUP1 REVERT JUMPDEST POP PUSH1 0x4 CALLDATASIZE LT PUSH2 0x57 JUMPI PUSH1 0x0 CALLDATALOAD PUSH1 0xE0 SHR DUP1 PUSH4 0x11C89B10 EQ PUSH2 0x5C JUMPI DUP1 PUSH4 0x20965255 EQ PUSH2 0x8C JUMPI DUP1 PUSH4 0x5118AF5A EQ PUSH2 0xAA JUMPI DUP1 PUSH4 0x75058205 EQ PUSH2 0xC8 JUMPI DUP1 PUSH4 0xF31A210A EQ PUSH2 0xF8 JUMPI JUMPDEST PUSH1 0x0 DUP1 REVERT JUMPDEST PUSH2 0x76 PUSH1 0x4 DUP1 CALLDATASIZE SUB DUP2 ADD SWAP1 PUSH2 0x71 SWAP2 SWAP1 PUSH2 0x8E4 JUMP JUMPDEST PUSH2 0x116 JUMP JUMPDEST PUSH1 0x40 MLOAD PUSH2 0x83 SWAP2 SWAP1 PUSH2 0xACF JUMP JUMPDEST PUSH1 0x40 MLOAD DUP1 SWAP2 SUB SWAP1 RETURN JUMPDEST PUSH2 0x94 PUSH2 0x162 JUMP JUMPDEST PUSH1 0x40 MLOAD PUSH2 0xA1 SWAP2 SWAP1 PUSH2 0xC0F JUMP JUMPDEST PUSH1 0x40 MLOAD DUP1 SWAP2 SUB SWAP1 RETURN JUMPDEST PUSH2 0xB2 PUSH2 0x197 JUMP JUMPDEST PUSH1 0x40 MLOAD PUSH2 0xBF SWAP2 SWAP1 PUSH2 0xC0F JUMP JUMPDEST PUSH1 0x40 MLOAD DUP1 SWAP2 SUB SWAP1 RETURN JUMPDEST PUSH2 0xE2 PUSH1 0x4 DUP1 CALLDATASIZE SUB DUP2 ADD SWAP1 PUSH2 0xDD SWAP2 SWAP1 PUSH2 0x911 JUMP JUMPDEST PUSH2 0x1A0 JUMP JUMPDEST PUSH1 0x40 MLOAD PUSH2 0xEF SWAP2 SWAP1 PUSH2 0xACF JUMP JUMPDEST PUSH1 0x40 MLOAD DUP1 SWAP2 SUB SWAP1 RETURN JUMPDEST PUSH2 0x100 PUSH2 0x21C JUMP JUMPDEST PUSH1 0x40 MLOAD PUSH2 0x10D SWAP2 SWAP1 PUSH2 0xC0F JUMP JUMPDEST PUSH1 0x40 MLOAD DUP1 SWAP2 SUB SWAP1 RETURN JUMPDEST PUSH1 0x0 PUSH20 0x63B3CC527BFD6E060EB65D4E902667AE19AECEC2 PUSH20 0xFFFFFFFFFFFFFFFFFFFFFFFFFFFFFFFFFFFFFFFF AND DUP3 PUSH20 0xFFFFFFFFFFFFFFFFFFFFFFFFFFFFFFFFFFFFFFFF AND EQ SWAP1 POP SWAP2 SWAP1 POP JUMP JUMPDEST PUSH1 0x0 DUP1 PUSH2 0x18E PUSH32 0x3078343461386261313230643430303937330000000000000000000000000000 PUSH2 0x225 JUMP JUMPDEST SWAP1 POP DUP1 SWAP2 POP POP SWAP1 JUMP JUMPDEST PUSH1 0x0 PUSH1 0xF SWAP1 POP SWAP1 JUMP JUMPDEST PUSH1 0x0 DUP2 PUSH2 0x1AB PUSH2 0x197 JUMP JUMPDEST TIMESTAMP PUSH2 0x1B6 SWAP2 SWAP1 PUSH2 0xC7E JUMP JUMPDEST GT PUSH2 0x1F6 JUMPI PUSH1 0x40 MLOAD PUSH32 0x8C379A000000000000000000000000000000000000000000000000000000000 DUP2 MSTORE PUSH1 0x4 ADD PUSH2 0x1ED SWAP1 PUSH2 0xBEF JUMP JUMPDEST PUSH1 0x40 MLOAD DUP1 SWAP2 SUB SWAP1 REVERT JUMPDEST DUP2 TIMESTAMP LT DUP1 PUSH2 0x215 JUMPI POP PUSH2 0x207 PUSH2 0x21C JUMP JUMPDEST DUP3 TIMESTAMP PUSH2 0x213 SWAP2 SWAP1 PUSH2 0xD10 JUMP JUMPDEST LT JUMPDEST SWAP1 POP SWAP2 SWAP1 POP JUMP JUMPDEST PUSH1 0x0 PUSH1 0xB4 SWAP1 POP SWAP1 JUMP JUMPDEST PUSH1 0x0 DUP1 PUSH1 0x1 PUSH8 0xFFFFFFFFFFFFFFFF DUP2 GT ISZERO PUSH2 0x243 JUMPI PUSH2 0x242 PUSH2 0xE48 JUMP JUMPDEST JUMPDEST PUSH1 0x40 MLOAD SWAP1 DUP1 DUP3 MSTORE DUP1 PUSH1 0x20 MUL PUSH1 0x20 ADD DUP3 ADD PUSH1 0x40 MSTORE DUP1 ISZERO PUSH2 0x271 JUMPI DUP2 PUSH1 0x20 ADD PUSH1 0x20 DUP3 MUL DUP1 CALLDATASIZE DUP4 CALLDATACOPY DUP1 DUP3 ADD SWAP2 POP POP SWAP1 POP JUMPDEST POP SWAP1 POP DUP3 DUP2 PUSH1 0x0 DUP2 MLOAD DUP2 LT PUSH2 0x289 JUMPI PUSH2 0x288 PUSH2 0xE19 JUMP JUMPDEST JUMPDEST PUSH1 0x20 MUL PUSH1 0x20 ADD ADD DUP2 DUP2 MSTORE POP POP PUSH2 0x29E DUP2 PUSH2 0x2C1 JUMP JUMPDEST PUSH1 0x0 DUP2 MLOAD DUP2 LT PUSH2 0x2B1 JUMPI PUSH2 0x2B0 PUSH2 0xE19 JUMP JUMPDEST JUMPDEST PUSH1 0x20 MUL PUSH1 0x20 ADD ADD MLOAD SWAP2 POP POP SWAP2 SWAP1 POP JUMP JUMPDEST PUSH1 0x60 PUSH1 0x0 PUSH1 0x61 CALLDATASIZE SUB CALLDATALOAD SWAP1 POP PUSH1 0x0 PUSH1 0x20 PUSH1 0x40 DUP4 PUSH1 0xFF AND PUSH2 0x2E0 SWAP2 SWAP1 PUSH2 0xCD4 JUMP JUMPDEST PUSH2 0x2EA SWAP2 SWAP1 PUSH2 0xC46 JUMP JUMPDEST SWAP1 POP PUSH1 0x60 PUSH1 0x40 MLOAD SWAP1 POP DUP2 DUP2 MSTORE DUP2 PUSH1 0x42 DUP4 ADD CALLDATASIZE SUB PUSH1 0x20 DUP4 ADD CALLDATACOPY PUSH1 0x20 DUP2 ADD PUSH1 0x40 MSTORE PUSH1 0x0 DUP2 DUP1 MLOAD SWAP1 PUSH1 0x20 ADD KECCAK256 SWAP1 POP PUSH1 0x0 DUP2 PUSH1 0x40 MLOAD PUSH1 0x20 ADD PUSH2 0x328 SWAP2 SWAP1 PUSH2 0xAA9 JUMP JUMPDEST PUSH1 0x40 MLOAD PUSH1 0x20 DUP2 DUP4 SUB SUB DUP2 MSTORE SWAP1 PUSH1 0x40 MSTORE DUP1 MLOAD SWAP1 PUSH1 0x20 ADD KECCAK256 SWAP1 POP PUSH1 0x60 PUSH1 0x40 MLOAD SWAP1 POP PUSH1 0x41 DUP2 MSTORE PUSH1 0x41 DUP1 CALLDATASIZE SUB PUSH1 0x20 DUP4 ADD CALLDATACOPY PUSH1 0x20 DUP2 ADD PUSH1 0x40 MSTORE PUSH1 0x0 PUSH2 0x371 DUP3 DUP5 PUSH2 0x429 SWAP1 SWAP2 SWAP1 PUSH4 0xFFFFFFFF AND JUMP JUMPDEST SWAP1 POP PUSH2 0x37C DUP2 PUSH2 0x116 JUMP JUMPDEST PUSH2 0x3BB JUMPI PUSH1 0x40 MLOAD PUSH32 0x8C379A000000000000000000000000000000000000000000000000000000000 DUP2 MSTORE PUSH1 0x4 ADD PUSH2 0x3B2 SWAP1 PUSH2 0xB8F JUMP JUMPDEST PUSH1 0x40 MLOAD DUP1 SWAP2 SUB SWAP1 REVERT JUMPDEST PUSH1 0x0 PUSH1 0x62 CALLDATASIZE SUB CALLDATALOAD SWAP1 POP PUSH2 0x3CD DUP2 PUSH2 0x1A0 JUMP JUMPDEST PUSH2 0x40C JUMPI PUSH1 0x40 MLOAD PUSH32 0x8C379A000000000000000000000000000000000000000000000000000000000 DUP2 MSTORE PUSH1 0x4 ADD PUSH2 0x403 SWAP1 PUSH2 0xB6F JUMP JUMPDEST PUSH1 0x40 MLOAD DUP1 SWAP2 SUB SWAP1 REVERT JUMPDEST PUSH2 0x41A DUP11 DUP10 PUSH1 0xFF AND DUP10 PUSH2 0x450 JUMP JUMPDEST SWAP9 POP POP POP POP POP POP POP POP POP SWAP2 SWAP1 POP JUMP JUMPDEST PUSH1 0x0 DUP1 PUSH1 0x0 PUSH2 0x438 DUP6 DUP6 PUSH2 0x4F6 JUMP JUMPDEST SWAP2 POP SWAP2 POP PUSH2 0x445 DUP2 PUSH2 0x579 JUMP JUMPDEST DUP2 SWAP3 POP POP POP SWAP3 SWAP2 POP POP JUMP JUMPDEST PUSH1 0x60 DUP1 PUSH1 0x0 DUP1 PUSH1 0x0 DUP1 PUSH1 0x42 DUP8 ADD CALLDATASIZE SUB MSIZE SWAP6 POP DUP10 MLOAD DUP7 MSTORE PUSH1 0x20 DUP11 MLOAD MUL PUSH1 0x20 DUP8 ADD ADD PUSH1 0x40 MSTORE PUSH1 0x0 SWAP5 POP JUMPDEST DUP9 DUP6 LT ISZERO PUSH2 0x4E6 JUMPI PUSH1 0x40 DUP6 MUL DUP2 ADD CALLDATALOAD SWAP2 POP PUSH1 0x0 SWAP4 POP JUMPDEST DUP10 MLOAD DUP5 LT ISZERO PUSH2 0x4DB JUMPI DUP2 PUSH1 0x20 DUP6 MUL PUSH1 0x20 DUP13 ADD ADD MLOAD EQ ISZERO PUSH2 0x4C3 JUMPI PUSH1 0x20 PUSH1 0x40 DUP7 MUL DUP3 ADD ADD CALLDATALOAD PUSH1 0x20 DUP6 MUL PUSH1 0x20 DUP9 ADD ADD MSTORE PUSH1 0x1 DUP4 ADD SWAP3 POP JUMPDEST DUP10 MLOAD DUP4 EQ ISZERO PUSH2 0x4D0 JUMPI DUP9 SWAP5 POP JUMPDEST PUSH1 0x1 DUP5 ADD SWAP4 POP PUSH2 0x48E JUMP JUMPDEST PUSH1 0x1 DUP6 ADD SWAP5 POP PUSH2 0x478 JUMP JUMPDEST POP DUP5 SWAP6 POP POP POP POP POP POP SWAP4 SWAP3 POP POP POP JUMP JUMPDEST PUSH1 0x0 DUP1 PUSH1 0x41 DUP4 MLOAD EQ ISZERO PUSH2 0x538 JUMPI PUSH1 0x0 DUP1 PUSH1 0x0 PUSH1 0x20 DUP7 ADD MLOAD SWAP3 POP PUSH1 0x40 DUP7 ADD MLOAD SWAP2 POP PUSH1 0x60 DUP7 ADD MLOAD PUSH1 0x0 BYTE SWAP1 POP PUSH2 0x52C DUP8 DUP3 DUP6 DUP6 PUSH2 0x74E JUMP JUMPDEST SWAP5 POP SWAP5 POP POP POP POP PUSH2 0x572 JUMP JUMPDEST PUSH1 0x40 DUP4 MLOAD EQ ISZERO PUSH2 0x569 JUMPI PUSH1 0x0 DUP1 PUSH1 0x20 DUP6 ADD MLOAD SWAP2 POP PUSH1 0x40 DUP6 ADD MLOAD SWAP1 POP PUSH2 0x55E DUP7 DUP4 DUP4 PUSH2 0x85B JUMP JUMPDEST SWAP4 POP SWAP4 POP POP POP PUSH2 0x572 JUMP JUMPDEST PUSH1 0x0 PUSH1 0x2 SWAP2 POP SWAP2 POP JUMPDEST SWAP3 POP SWAP3 SWAP1 POP JUMP JUMPDEST PUSH1 0x0 PUSH1 0x4 DUP2 GT ISZERO PUSH2 0x58D JUMPI PUSH2 0x58C PUSH2 0xDEA JUMP JUMPDEST JUMPDEST DUP2 PUSH1 0x4 DUP2 GT ISZERO PUSH2 0x5A0 JUMPI PUSH2 0x59F PUSH2 0xDEA JUMP JUMPDEST JUMPDEST EQ ISZERO PUSH2 0x5AB JUMPI PUSH2 0x74B JUMP JUMPDEST PUSH1 0x1 PUSH1 0x4 DUP2 GT ISZERO PUSH2 0x5BF JUMPI PUSH2 0x5BE PUSH2 0xDEA JUMP JUMPDEST JUMPDEST DUP2 PUSH1 0x4 DUP2 GT ISZERO PUSH2 0x5D2 JUMPI PUSH2 0x5D1 PUSH2 0xDEA JUMP JUMPDEST JUMPDEST EQ ISZERO PUSH2 0x613 JUMPI PUSH1 0x40 MLOAD PUSH32 0x8C379A000000000000000000000000000000000000000000000000000000000 DUP2 MSTORE PUSH1 0x4 ADD PUSH2 0x60A SWAP1 PUSH2 0xB2F JUMP JUMPDEST PUSH1 0x40 MLOAD DUP1 SWAP2 SUB SWAP1 REVERT JUMPDEST PUSH1 0x2 PUSH1 0x4 DUP2 GT ISZERO PUSH2 0x627 JUMPI PUSH2 0x626 PUSH2 0xDEA JUMP JUMPDEST JUMPDEST DUP2 PUSH1 0x4 DUP2 GT ISZERO PUSH2 0x63A JUMPI PUSH2 0x639 PUSH2 0xDEA JUMP JUMPDEST JUMPDEST EQ ISZERO PUSH2 0x67B JUMPI PUSH1 0x40 MLOAD PUSH32 0x8C379A000000000000000000000000000000000000000000000000000000000 DUP2 MSTORE PUSH1 0x4 ADD PUSH2 0x672 SWAP1 PUSH2 0xB4F JUMP JUMPDEST PUSH1 0x40 MLOAD DUP1 SWAP2 SUB SWAP1 REVERT JUMPDEST PUSH1 0x3 PUSH1 0x4 DUP2 GT ISZERO PUSH2 0x68F JUMPI PUSH2 0x68E PUSH2 0xDEA JUMP JUMPDEST JUMPDEST DUP2 PUSH1 0x4 DUP2 GT ISZERO PUSH2 0x6A2 JUMPI PUSH2 0x6A1 PUSH2 0xDEA JUMP JUMPDEST JUMPDEST EQ ISZERO PUSH2 0x6E3 JUMPI PUSH1 0x40 MLOAD PUSH32 0x8C379A000000000000000000000000000000000000000000000000000000000 DUP2 MSTORE PUSH1 0x4 ADD PUSH2 0x6DA SWAP1 PUSH2 0xBAF JUMP JUMPDEST PUSH1 0x40 MLOAD DUP1 SWAP2 SUB SWAP1 REVERT JUMPDEST PUSH1 0x4 DUP1 DUP2 GT ISZERO PUSH2 0x6F6 JUMPI PUSH2 0x6F5 PUSH2 0xDEA JUMP JUMPDEST JUMPDEST DUP2 PUSH1 0x4 DUP2 GT ISZERO PUSH2 0x709 JUMPI PUSH2 0x708 PUSH2 0xDEA JUMP JUMPDEST JUMPDEST EQ ISZERO PUSH2 0x74A JUMPI PUSH1 0x40 MLOAD PUSH32 0x8C379A000000000000000000000000000000000000000000000000000000000 DUP2 MSTORE PUSH1 0x4 ADD PUSH2 0x741 SWAP1 PUSH2 0xBCF JUMP JUMPDEST PUSH1 0x40 MLOAD DUP1 SWAP2 SUB SWAP1 REVERT JUMPDEST JUMPDEST POP JUMP JUMPDEST PUSH1 0x0 DUP1 PUSH32 0x7FFFFFFFFFFFFFFFFFFFFFFFFFFFFFFF5D576E7357A4501DDFE92F46681B20A0 DUP4 PUSH1 0x0 SHR GT ISZERO PUSH2 0x789 JUMPI PUSH1 0x0 PUSH1 0x3 SWAP2 POP SWAP2 POP PUSH2 0x852 JUMP JUMPDEST PUSH1 0x1B DUP6 PUSH1 0xFF AND EQ ISZERO DUP1 ISZERO PUSH2 0x7A1 JUMPI POP PUSH1 0x1C DUP6 PUSH1 0xFF AND EQ ISZERO JUMPDEST ISZERO PUSH2 0x7B3 JUMPI PUSH1 0x0 PUSH1 0x4 SWAP2 POP SWAP2 POP PUSH2 0x852 JUMP JUMPDEST PUSH1 0x0 PUSH1 0x1 DUP8 DUP8 DUP8 DUP8 PUSH1 0x40 MLOAD PUSH1 0x0 DUP2 MSTORE PUSH1 0x20 ADD PUSH1 0x40 MSTORE PUSH1 0x40 MLOAD PUSH2 0x7D8 SWAP5 SWAP4 SWAP3 SWAP2 SWAP1 PUSH2 0xAEA JUMP JUMPDEST PUSH1 0x20 PUSH1 0x40 MLOAD PUSH1 0x20 DUP2 SUB SWAP1 DUP1 DUP5 SUB SWAP1 DUP6 GAS STATICCALL ISZERO DUP1 ISZERO PUSH2 0x7FA JUMPI RETURNDATASIZE PUSH1 0x0 DUP1 RETURNDATACOPY RETURNDATASIZE PUSH1 0x0 REVERT JUMPDEST POP POP POP PUSH1 0x20 PUSH1 0x40 MLOAD SUB MLOAD SWAP1 POP PUSH1 0x0 PUSH20 0xFFFFFFFFFFFFFFFFFFFFFFFFFFFFFFFFFFFFFFFF AND DUP2 PUSH20 0xFFFFFFFFFFFFFFFFFFFFFFFFFFFFFFFFFFFFFFFF AND EQ ISZERO PUSH2 0x849 JUMPI PUSH1 0x0 PUSH1 0x1 SWAP3 POP SWAP3 POP POP PUSH2 0x852 JUMP JUMPDEST DUP1 PUSH1 0x0 SWAP3 POP SWAP3 POP POP JUMPDEST SWAP5 POP SWAP5 SWAP3 POP POP POP JUMP JUMPDEST PUSH1 0x0 DUP1 PUSH1 0x0 PUSH32 0x7FFFFFFFFFFFFFFFFFFFFFFFFFFFFFFFFFFFFFFFFFFFFFFFFFFFFFFFFFFFFFFF PUSH1 0x0 SHL DUP5 AND SWAP1 POP PUSH1 0x0 PUSH1 0x1B PUSH1 0xFF DUP7 PUSH1 0x0 SHR SWAP1 SHR PUSH2 0x89E SWAP2 SWAP1 PUSH2 0xC7E JUMP JUMPDEST SWAP1 POP PUSH2 0x8AC DUP8 DUP3 DUP9 DUP6 PUSH2 0x74E JUMP JUMPDEST SWAP4 POP SWAP4 POP POP POP SWAP4 POP SWAP4 SWAP2 POP POP JUMP JUMPDEST PUSH1 0x0 DUP2 CALLDATALOAD SWAP1 POP PUSH2 0x8C9 DUP2 PUSH2 0x1036 JUMP JUMPDEST SWAP3 SWAP2 POP POP JUMP JUMPDEST PUSH1 0x0 DUP2 CALLDATALOAD SWAP1 POP PUSH2 0x8DE DUP2 PUSH2 0x104D JUMP JUMPDEST SWAP3 SWAP2 POP POP JUMP JUMPDEST PUSH1 0x0 PUSH1 0x20 DUP3 DUP5 SUB SLT ISZERO PUSH2 0x8FA JUMPI PUSH2 0x8F9 PUSH2 0xE77 JUMP JUMPDEST JUMPDEST PUSH1 0x0 PUSH2 0x908 DUP5 DUP3 DUP6 ADD PUSH2 0x8BA JUMP JUMPDEST SWAP2 POP POP SWAP3 SWAP2 POP POP JUMP JUMPDEST PUSH1 0x0 PUSH1 0x20 DUP3 DUP5 SUB SLT ISZERO PUSH2 0x927 JUMPI PUSH2 0x926 PUSH2 0xE77 JUMP JUMPDEST JUMPDEST PUSH1 0x0 PUSH2 0x935 DUP5 DUP3 DUP6 ADD PUSH2 0x8CF JUMP JUMPDEST SWAP2 POP POP SWAP3 SWAP2 POP POP JUMP JUMPDEST PUSH2 0x947 DUP2 PUSH2 0xD56 JUMP JUMPDEST DUP3 MSTORE POP POP JUMP JUMPDEST PUSH2 0x956 DUP2 PUSH2 0xD62 JUMP JUMPDEST DUP3 MSTORE POP POP JUMP JUMPDEST PUSH2 0x96D PUSH2 0x968 DUP3 PUSH2 0xD62 JUMP JUMPDEST PUSH2 0xDB1 JUMP JUMPDEST DUP3 MSTORE POP POP JUMP JUMPDEST PUSH1 0x0 PUSH2 0x980 PUSH1 0x18 DUP4 PUSH2 0xC2A JUMP JUMPDEST SWAP2 POP PUSH2 0x98B DUP3 PUSH2 0xE7C JUMP JUMPDEST PUSH1 0x20 DUP3 ADD SWAP1 POP SWAP2 SWAP1 POP JUMP JUMPDEST PUSH1 0x0 PUSH2 0x9A3 PUSH1 0x1F DUP4 PUSH2 0xC2A JUMP JUMPDEST SWAP2 POP PUSH2 0x9AE DUP3 PUSH2 0xEA5 JUMP JUMPDEST PUSH1 0x20 DUP3 ADD SWAP1 POP SWAP2 SWAP1 POP JUMP JUMPDEST PUSH1 0x0 PUSH2 0x9C6 PUSH1 0x1C DUP4 PUSH2 0xC3B JUMP JUMPDEST SWAP2 POP PUSH2 0x9D1 DUP3 PUSH2 0xECE JUMP JUMPDEST PUSH1 0x1C DUP3 ADD SWAP1 POP SWAP2 SWAP1 POP JUMP JUMPDEST PUSH1 0x0 PUSH2 0x9E9 PUSH1 0x19 DUP4 PUSH2 0xC2A JUMP JUMPDEST SWAP2 POP PUSH2 0x9F4 DUP3 PUSH2 0xEF7 JUMP JUMPDEST PUSH1 0x20 DUP3 ADD SWAP1 POP SWAP2 SWAP1 POP JUMP JUMPDEST PUSH1 0x0 PUSH2 0xA0C PUSH1 0x15 DUP4 PUSH2 0xC2A JUMP JUMPDEST SWAP2 POP PUSH2 0xA17 DUP3 PUSH2 0xF20 JUMP JUMPDEST PUSH1 0x20 DUP3 ADD SWAP1 POP SWAP2 SWAP1 POP JUMP JUMPDEST PUSH1 0x0 PUSH2 0xA2F PUSH1 0x22 DUP4 PUSH2 0xC2A JUMP JUMPDEST SWAP2 POP PUSH2 0xA3A DUP3 PUSH2 0xF49 JUMP JUMPDEST PUSH1 0x40 DUP3 ADD SWAP1 POP SWAP2 SWAP1 POP JUMP JUMPDEST PUSH1 0x0 PUSH2 0xA52 PUSH1 0x22 DUP4 PUSH2 0xC2A JUMP JUMPDEST SWAP2 POP PUSH2 0xA5D DUP3 PUSH2 0xF98 JUMP JUMPDEST PUSH1 0x40 DUP3 ADD SWAP1 POP SWAP2 SWAP1 POP JUMP JUMPDEST PUSH1 0x0 PUSH2 0xA75 PUSH1 0x2A DUP4 PUSH2 0xC2A JUMP JUMPDEST SWAP2 POP PUSH2 0xA80 DUP3 PUSH2 0xFE7 JUMP JUMPDEST PUSH1 0x40 DUP3 ADD SWAP1 POP SWAP2 SWAP1 POP JUMP JUMPDEST PUSH2 0xA94 DUP2 PUSH2 0xD9A JUMP JUMPDEST DUP3 MSTORE POP POP JUMP JUMPDEST PUSH2 0xAA3 DUP2 PUSH2 0xDA4 JUMP JUMPDEST DUP3 MSTORE POP POP JUMP JUMPDEST PUSH1 0x0 PUSH2 0xAB4 DUP3 PUSH2 0x9B9 JUMP JUMPDEST SWAP2 POP PUSH2 0xAC0 DUP3 DUP5 PUSH2 0x95C JUMP JUMPDEST PUSH1 0x20 DUP3 ADD SWAP2 POP DUP2 SWAP1 POP SWAP3 SWAP2 POP POP JUMP JUMPDEST PUSH1 0x0 PUSH1 0x20 DUP3 ADD SWAP1 POP PUSH2 0xAE4 PUSH1 0x0 DUP4 ADD DUP5 PUSH2 0x93E JUMP JUMPDEST SWAP3 SWAP2 POP POP JUMP JUMPDEST PUSH1 0x0 PUSH1 0x80 DUP3 ADD SWAP1 POP PUSH2 0xAFF PUSH1 0x0 DUP4 ADD DUP8 PUSH2 0x94D JUMP JUMPDEST PUSH2 0xB0C PUSH1 0x20 DUP4 ADD DUP7 PUSH2 0xA9A JUMP JUMPDEST PUSH2 0xB19 PUSH1 0x40 DUP4 ADD DUP6 PUSH2 0x94D JUMP JUMPDEST PUSH2 0xB26 PUSH1 0x60 DUP4 ADD DUP5 PUSH2 0x94D JUMP JUMPDEST SWAP6 SWAP5 POP POP POP POP POP JUMP JUMPDEST PUSH1 0x0 PUSH1 0x20 DUP3 ADD SWAP1 POP DUP2 DUP2 SUB PUSH1 0x0 DUP4 ADD MSTORE PUSH2 0xB48 DUP2 PUSH2 0x973 JUMP JUMPDEST SWAP1 POP SWAP2 SWAP1 POP JUMP JUMPDEST PUSH1 0x0 PUSH1 0x20 DUP3 ADD SWAP1 POP DUP2 DUP2 SUB PUSH1 0x0 DUP4 ADD MSTORE PUSH2 0xB68 DUP2 PUSH2 0x996 JUMP JUMPDEST SWAP1 POP SWAP2 SWAP1 POP JUMP JUMPDEST PUSH1 0x0 PUSH1 0x20 DUP3 ADD SWAP1 POP DUP2 DUP2 SUB PUSH1 0x0 DUP4 ADD MSTORE PUSH2 0xB88 DUP2 PUSH2 0x9DC JUMP JUMPDEST SWAP1 POP SWAP2 SWAP1 POP JUMP JUMPDEST PUSH1 0x0 PUSH1 0x20 DUP3 ADD SWAP1 POP DUP2 DUP2 SUB PUSH1 0x0 DUP4 ADD MSTORE PUSH2 0xBA8 DUP2 PUSH2 0x9FF JUMP JUMPDEST SWAP1 POP SWAP2 SWAP1 POP JUMP JUMPDEST PUSH1 0x0 PUSH1 0x20 DUP3 ADD SWAP1 POP DUP2 DUP2 SUB PUSH1 0x0 DUP4 ADD MSTORE PUSH2 0xBC8 DUP2 PUSH2 0xA22 JUMP JUMPDEST SWAP1 POP SWAP2 SWAP1 POP JUMP JUMPDEST PUSH1 0x0 PUSH1 0x20 DUP3 ADD SWAP1 POP DUP2 DUP2 SUB PUSH1 0x0 DUP4 ADD MSTORE PUSH2 0xBE8 DUP2 PUSH2 0xA45 JUMP JUMPDEST SWAP1 POP SWAP2 SWAP1 POP JUMP JUMPDEST PUSH1 0x0 PUSH1 0x20 DUP3 ADD SWAP1 POP DUP2 DUP2 SUB PUSH1 0x0 DUP4 ADD MSTORE PUSH2 0xC08 DUP2 PUSH2 0xA68 JUMP JUMPDEST SWAP1 POP SWAP2 SWAP1 POP JUMP JUMPDEST PUSH1 0x0 PUSH1 0x20 DUP3 ADD SWAP1 POP PUSH2 0xC24 PUSH1 0x0 DUP4 ADD DUP5 PUSH2 0xA8B JUMP JUMPDEST SWAP3 SWAP2 POP POP JUMP JUMPDEST PUSH1 0x0 DUP3 DUP3 MSTORE PUSH1 0x20 DUP3 ADD SWAP1 POP SWAP3 SWAP2 POP POP JUMP JUMPDEST PUSH1 0x0 DUP2 SWAP1 POP SWAP3 SWAP2 POP POP JUMP JUMPDEST PUSH1 0x0 PUSH2 0xC51 DUP3 PUSH2 0xD6C JUMP JUMPDEST SWAP2 POP PUSH2 0xC5C DUP4 PUSH2 0xD6C JUMP JUMPDEST SWAP3 POP DUP3 PUSH2 0xFFFF SUB DUP3 GT ISZERO PUSH2 0xC73 JUMPI PUSH2 0xC72 PUSH2 0xDBB JUMP JUMPDEST JUMPDEST DUP3 DUP3 ADD SWAP1 POP SWAP3 SWAP2 POP POP JUMP JUMPDEST PUSH1 0x0 PUSH2 0xC89 DUP3 PUSH2 0xD9A JUMP JUMPDEST SWAP2 POP PUSH2 0xC94 DUP4 PUSH2 0xD9A JUMP JUMPDEST SWAP3 POP DUP3 PUSH32 0xFFFFFFFFFFFFFFFFFFFFFFFFFFFFFFFFFFFFFFFFFFFFFFFFFFFFFFFFFFFFFFFF SUB DUP3 GT ISZERO PUSH2 0xCC9 JUMPI PUSH2 0xCC8 PUSH2 0xDBB JUMP JUMPDEST JUMPDEST DUP3 DUP3 ADD SWAP1 POP SWAP3 SWAP2 POP POP JUMP JUMPDEST PUSH1 0x0 PUSH2 0xCDF DUP3 PUSH2 0xD6C JUMP JUMPDEST SWAP2 POP PUSH2 0xCEA DUP4 PUSH2 0xD6C JUMP JUMPDEST SWAP3 POP DUP2 PUSH2 0xFFFF DIV DUP4 GT DUP3 ISZERO ISZERO AND ISZERO PUSH2 0xD05 JUMPI PUSH2 0xD04 PUSH2 0xDBB JUMP JUMPDEST JUMPDEST DUP3 DUP3 MUL SWAP1 POP SWAP3 SWAP2 POP POP JUMP JUMPDEST PUSH1 0x0 PUSH2 0xD1B DUP3 PUSH2 0xD9A JUMP JUMPDEST SWAP2 POP PUSH2 0xD26 DUP4 PUSH2 0xD9A JUMP JUMPDEST SWAP3 POP DUP3 DUP3 LT ISZERO PUSH2 0xD39 JUMPI PUSH2 0xD38 PUSH2 0xDBB JUMP JUMPDEST JUMPDEST DUP3 DUP3 SUB SWAP1 POP SWAP3 SWAP2 POP POP JUMP JUMPDEST PUSH1 0x0 PUSH2 0xD4F DUP3 PUSH2 0xD7A JUMP JUMPDEST SWAP1 POP SWAP2 SWAP1 POP JUMP JUMPDEST PUSH1 0x0 DUP2 ISZERO ISZERO SWAP1 POP SWAP2 SWAP1 POP JUMP JUMPDEST PUSH1 0x0 DUP2 SWAP1 POP SWAP2 SWAP1 POP JUMP JUMPDEST PUSH1 0x0 PUSH2 0xFFFF DUP3 AND SWAP1 POP SWAP2 SWAP1 POP JUMP JUMPDEST PUSH1 0x0 PUSH20 0xFFFFFFFFFFFFFFFFFFFFFFFFFFFFFFFFFFFFFFFF DUP3 AND SWAP1 POP SWAP2 SWAP1 POP JUMP JUMPDEST PUSH1 0x0 DUP2 SWAP1 POP SWAP2 SWAP1 POP JUMP JUMPDEST PUSH1 0x0 PUSH1 0xFF DUP3 AND SWAP1 POP SWAP2 SWAP1 POP JUMP JUMPDEST PUSH1 0x0 DUP2 SWAP1 POP SWAP2 SWAP1 POP JUMP JUMPDEST PUSH32 0x4E487B7100000000000000000000000000000000000000000000000000000000 PUSH1 0x0 MSTORE PUSH1 0x11 PUSH1 0x4 MSTORE PUSH1 0x24 PUSH1 0x0 REVERT JUMPDEST PUSH32 0x4E487B7100000000000000000000000000000000000000000000000000000000 PUSH1 0x0 MSTORE PUSH1 0x21 PUSH1 0x4 MSTORE PUSH1 0x24 PUSH1 0x0 REVERT JUMPDEST PUSH32 0x4E487B7100000000000000000000000000000000000000000000000000000000 PUSH1 0x0 MSTORE PUSH1 0x32 PUSH1 0x4 MSTORE PUSH1 0x24 PUSH1 0x0 REVERT JUMPDEST PUSH32 0x4E487B7100000000000000000000000000000000000000000000000000000000 PUSH1 0x0 MSTORE PUSH1 0x41 PUSH1 0x4 MSTORE PUSH1 0x24 PUSH1 0x0 REVERT JUMPDEST PUSH1 0x0 DUP1 REVERT JUMPDEST PUSH32 0x45434453413A20696E76616C6964207369676E61747572650000000000000000 PUSH1 0x0 DUP3 ADD MSTORE POP JUMP JUMPDEST PUSH32 0x45434453413A20696E76616C6964207369676E6174757265206C656E67746800 PUSH1 0x0 DUP3 ADD MSTORE POP JUMP JUMPDEST PUSH32 0x19457468657265756D205369676E6564204D6573736167653A0A333200000000 PUSH1 0x0 DUP3 ADD MSTORE POP JUMP JUMPDEST PUSH32 0x446174612074696D657374616D7020697320696E76616C696400000000000000 PUSH1 0x0 DUP3 ADD MSTORE POP JUMP JUMPDEST PUSH32 0x5369676E6572206E6F7420617574686F72697A65640000000000000000000000 PUSH1 0x0 DUP3 ADD MSTORE POP JUMP JUMPDEST PUSH32 0x45434453413A20696E76616C6964207369676E6174757265202773272076616C PUSH1 0x0 DUP3 ADD MSTORE PUSH32 0x7565000000000000000000000000000000000000000000000000000000000000 PUSH1 0x20 DUP3 ADD MSTORE POP JUMP JUMPDEST PUSH32 0x45434453413A20696E76616C6964207369676E6174757265202776272076616C PUSH1 0x0 DUP3 ADD MSTORE PUSH32 0x7565000000000000000000000000000000000000000000000000000000000000 PUSH1 0x20 DUP3 ADD MSTORE POP JUMP JUMPDEST PUSH32 0x446174612077697468206675747572652074696D657374616D7073206973206E PUSH1 0x0 DUP3 ADD MSTORE PUSH32 0x6F7420616C6C6F77656400000000000000000000000000000000000000000000 PUSH1 0x20 DUP3 ADD MSTORE POP JUMP JUMPDEST PUSH2 0x103F DUP2 PUSH2 0xD44 JUMP JUMPDEST DUP2 EQ PUSH2 0x104A JUMPI PUSH1 0x0 DUP1 REVERT JUMPDEST POP JUMP JUMPDEST PUSH2 0x1056 DUP2 PUSH2 0xD9A JUMP JUMPDEST DUP2 EQ PUSH2 0x1061 JUMPI PUSH1 0x0 DUP1 REVERT JUMPDEST POP JUMP INVALID LOG2 PUSH5 0x6970667358 0x22 SLT KECCAK256 0xBB SWAP8 SLOAD 0x21 PUSH16 0xF4DF4A7A93829825D4868C20D6AB48FF 0xBD SHR 0xBD 0xF6 0xB2 MLOAD 0xEF 0x23 0x4E 0xD6 LOG4 PUSH5 0x736F6C6343 STOP ADDMOD SMOD STOP CALLER "
		},
		"gasEstimates": {
			"creation": {
				"codeDepositCost": "850000",
				"executionCost": "5889",
				"totalCost": "855889"
			},
			"external": {
				"getMaxBlockTimestampDelay()": "359",
				"getMaxDataTimestampDelay()": "403",
				"getValue()": "infinite",
				"isSignerAuthorized(address)": "653",
				"isTimestampValid(uint256)": "infinite"
			}
		},
		"methodIdentifiers": {
			"getMaxBlockTimestampDelay()": "5118af5a",
			"getMaxDataTimestampDelay()": "f31a210a",
			"getValue()": "20965255",
			"isSignerAuthorized(address)": "11c89b10",
			"isTimestampValid(uint256)": "75058205"
		}
	},
	"abi": [
		{
			"inputs": [],
			"name": "getMaxBlockTimestampDelay",
			"outputs": [
				{
					"internalType": "uint256",
					"name": "",
					"type": "uint256"
				}
			],
			"stateMutability": "view",
			"type": "function"
		},
		{
			"inputs": [],
			"name": "getMaxDataTimestampDelay",
			"outputs": [
				{
					"internalType": "uint256",
					"name": "",
					"type": "uint256"
				}
			],
			"stateMutability": "view",
			"type": "function"
		},
		{
			"inputs": [],
			"name": "getValue",
			"outputs": [
				{
					"internalType": "uint256",
					"name": "",
					"type": "uint256"
				}
			],
			"stateMutability": "view",
			"type": "function"
		},
		{
			"inputs": [
				{
					"internalType": "address",
					"name": "_receviedSigner",
					"type": "address"
				}
			],
			"name": "isSignerAuthorized",
			"outputs": [
				{
					"internalType": "bool",
					"name": "",
					"type": "bool"
				}
			],
			"stateMutability": "view",
			"type": "function"
		},
		{
			"inputs": [
				{
					"internalType": "uint256",
					"name": "_receivedTimestamp",
					"type": "uint256"
				}
			],
			"name": "isTimestampValid",
			"outputs": [
				{
					"internalType": "bool",
					"name": "",
					"type": "bool"
				}
			],
			"stateMutability": "view",
			"type": "function"
		}
	]
}